:03000000020BDF11
:0C0BDF00787FE4F6D8FD758139020C2601
:100DD700020A0003010C01010E12010F00010D00B0
:100DE700010800012D00071700000000000004079C
:100DF70026FEFDFBF7EFDFBF071F11111111110AC7
:0A0E07000407101010101010101F47
:03000300020E7476
:100E7400C0E0C0D0E52D700FC3E51D648094905090
:0C0E840006E51D25E0F51DD0D0D0E032C1
:03001300020E5783
:100E5700C0E0C0D0E52D7010D3E51D6480948140BB
:0D0E670007E51DA2E713F51DD0D0D0E03245
:100E9000E51CB51D12E50B450A6009E50B150B7045
:080EA00006150A22752D01223E
:100C6B008E328F338C348D35120CC1AC06AD07EC44
:100C7B001209ABE4FBFAF97847120909C004C00565
:100C8B00C006C007C3E5359533CFE5349532CF2485
:100C9B0001FDE43FFC1209ABD003D002D001D00020
:100CAB001208001209E4E5332FFFE5323EFEEF2573
:060CBB00E0FFEE33FE2213
:100D0E00E4F508E5087040120CC17C007D19120A4A
:100D1E0065ED2401F533E43CF532E53364014532EB
:100D2E006020E533640245326018E53364044532D1
:100D3E006010E533640845326008E53364104532CF
:090D4E0070C175080180BCAF33CF
:010D57002279
:040D5800E52D703FD6
:100D5C00F530753105AF3174162FF8E6FE74172F88
:100D6C00F8A606E531153170021530E531453070C5
:100D7C00E47D0A7C00E4FFFE120C6BD3EF9405EECD
:0F0D8C00648094804006120D0E8F1722E4F51735
:010D9B002235
:100E39007590FF74172509F8E6F5A074262509F8B9
:0E0E4900E6F5900509E509B40703E4F5092272
:100AFE00758C3C758AAF151E050FE51E7046751E6A
:100B0E0014050DE50D640A703BC3E50C64809485F5
:0D0B1E005007050CE4F50D802BE52D702728
:100B2B00F52E752F06AF2F741F2FF8E6FE74172FB7
:100B3B00F8A606752D01E52F152F7002152EE52F42
:070B4B00452E70E175171142
:100B5200E50F650E6003020BDEC3E50C648094862C
:100B6200507AE4F50F120E90D3E50B9400E50A6477
:100B72008094804009E52D7005120D588038D3E528
:0F0B82000B9400E50A64809480502BE52D7027BA
:100B9100F52E752F06AF2F74102FF8E6FE74172F60
:100BA100F8A606752D01E52F152F7002152EE52FDC
:070BB100452E70E1751710DD
:100BB800E50C24FE601114601214601314601424F0
:100BC800047013750E1222750E0F22750E0C227505
:070BD8000E0922750E062232
:03000B00020D9C47
:100D9C00C0E0C0F0C083C082C0D075D000C000C01D
:100DAC0001C002C003C004C005C006C007120AFE81
:100DBC00D007D006D005D004D003D002D001D0008B
:0B0DCC00D0D0D082D083D0F0D0E03235
:03001B00020EA82A
:100EA800C0E0C0D075D000C000120E39D000D0D03C
:030EB800D0E03255
:100E1200758921758C3C758AAF758D70758B70756F
:100E22001E14E4F5B875A88FD288D28AD28CD28EDD
:070E3200F50975B0FF80FE19
:10080000EC4D6011E8497017ED33EC3304600DE4F2
:10081000FCFFFEFD22E933E8330470F8020A5012AF
:100820000A1B58046009E4CC2481500628500902B0
:100830000A5A284003020A57C0E0EB4A7044B980C4
:1008400006D0E0FB020A46EF4E701CBD8008EBFFAD
:10085000EAFEE9FD80EBE98DF0A4FEE5F00208E98F
:10086000E9CDF9EAFEEBFFEF89F0A4FCE5F0CE89D3
:10087000F0A42EFFE435F0CD89F0A42DFEE435F090
:100880008067EF4E7005BD80D780C3EF8BF0A4ACBE
:10089000F0EE8BF0A42CFCE435F0F8EF8AF0A42CF9
:1008A000E5F038FCE433CB8DF0A42CFCE5F03BF80C
:1008B000EE8AF0A42CFCE5F038F8E433CF89F0A4FC
:1008C0002CFCE5F038CF3400CE89F0A42FFFE5F002
:1008D0003EFEE433C98DF0A42EFEE5F039CD8AF05A
:1008E000A42FFFE5F03EFEE43DFD33D0E0FB5007D2
:1008F0000BBB000F020A5AEC2CFCEF33FFEE33FE69
:06090000ED33FD020A3296
:10090600020A5AEC5D046005E859047003020A50B5
:10091600120A1B580460F6EC4860F2EC7004FDFE07
:10092600FF22C860DB2481C85009C39860025006C4
:10093600020A579850CAF582E9294B4A7005AB82DC
:10094600020A4675F0007C1A7880C3EF9BEE9AED9A
:1009560099400DC3EF9BFFEE9AFEED99FDE842F03C
:10096600DC23ACF0D0E0FFD0E0FED0E0FDAB82208F
:10097600E7101BEB60BAEC2CFCEF33FFEE33FEED19
:1009860033FD020A32E803F830E705C0F075F000DF
:10099600EF2FFFEE33FEED33FD40B830E7C280AAFD
:1009A60075F020800E75F010800575F0087D007ECC
:1009B600007F003392D530D503120A9BEC334010EA
:1009C600EF33FFEE33FEED33FDEC33FCD5F0ED22D5
:0E09D600E5F0247EA2D513CC92E7CDCEFF2211
:1009E400EDD2E7CD33EC3392D524814006E4FFFE0B
:1009F400FDFC22FCE4CFCECDCC24E0501174FF806A
:100A0400EDC3CC13CCCD13CDCE13CECF13CF047006
:070A1400F030D5DE020A9B61
:100A1B00E9D2E7C933E833F892D5EDD2E7CD33EC21
:070A2B0033FC5002B2D5229A
:100A3200EC30E7100FBF000C0EBE00080DBD000425
:100A42000BEB6014A2D5EB13FCED92E7FD2274FFD1
:100A5200FCFDFEFF22E480F8A2D574FF13FC7D802A
:030A6200E480EF3E
:100BEB00020E12E493A3F8E493A34003F68001F200
:100BFB0008DFF48029E493A3F85407240CC8C3330B
:100C0B00C4540F4420C8834004F456800146F6DFD9
:100C1B00E4800B0102040810204080900DD7E47E85
:100C2B00019360BCA3FF543F30E509541FFEE493CE
:100C3B00A360010ECF54C025E060A840B8E493A395
:100C4B00FAE493A3F8E493A3C8C582C8CAC583CAC0
:100C5B00F0A3C8C582C8CAC583CADFE9DEE780BE78
:010E110000E0
:100A6500C2D5EC30E709B2D5E4C39DFDE49CFCEEAC
:100A750030E715B2D5E4C39FFFE49EFE120AA9C371
:100A8500E49DFDE49CFC8003120AA930D507C3E46C
:060A95009FFFE49EFE221B
:0E0A9B00C3E49FFFE49EFEE49DFDE49CFC226C
:100CC100AC36AD37AE38AF397810EC4D4E4F7004BD
:100CD1007CA57DA5C3EC13FCED13FDEE13FEEF1314
:100CE100FF5010EC64CCFCED644CFDEE644EFEEF65
:100CF10064CEFFD8DF8C368D378E388F39EE547F36
:0D0D0100FE228E368F3774A5F538F53922A5
:100AA900BC000BBE0029EF8DF084FFADF022E4CC31
:100AB900F875F008EF2FFFEE33FEEC33FCEE9DECFA
:100AC900984005FCEE9DFE0FD5F0E9E4CEFD22ED40
:100AD900F8F5F0EE8420D21CFEADF075F008EF2F8A
:100AE900FFED33FD4007985006D5F0F222C398FD7B
:050AF9000FD5F0EA2218
:00000001FF
